:020000040800F2
:1000000058260020490100082B240008F11F000891
:100010002924000837020008532E000800000000C1
:10002000000000000000000000000000512B00084C
:1000300075020008000000002D240008532B000862
:1000400063010008630100086301000871250008CE
:1000500063010008630100086301000863010008F0
:1000600063010008630100086301000863010008E0
:100070003902000845020008630100085102000827
:1000800063010008630100086301000863010008C0
:1000900063010008630100086301000863010008B0
:1000A00063010008630100086301000863010008A0
:1000B0006301000863010008630100086301000890
:1000C0006301000863010008630100086301000880
:1000D0006301000863010008630100086301000870
:1000E000770200086301000863010008630100084B
:1000F0006301000863010008630100086301000850
:10010000630100086301000863010008630100083F
:10011000630100086301000863010008630100082F
:100120005D0200086902000863010008630100081D
:10013000DFF810D000F042F800480047614F000897
:10014000AFF3008058260020064880470648004745
:10015000FEE7FEE7FEE7FEE7FEE7FEE7FEE7FEE777
:10016000FEE7FEE7DF2B000831010008D2B201E014
:1001700000F8012B491EFBD270470022F6E710B5AC
:1001800013460A4604461946FFF7F0FF204610BD05
:1001900030B50B46014600202022012409E021FA57
:1001A00002F59D4205D303FA02F5491B04FA02F554
:1001B0002844151EA2F10102F1DC30BD064C074DAA
:1001C00006E0E06840F0010394E807009847103427
:1001D000AC42F6D3FFF7B0FFEC5800080C5900080A
:1001E00070B5044600688168C943C90717D18168A2
:1001F00021F00101816000F025FD05460AE000BF05
:1002000000F020FD401B022804D920688068C0430C
:10021000C00706D020688068C043C007F0D0002027
:1002200070BDA06A40F01000A062E06A40F00100DA
:10023000E062012070BDFEE7014800F07FBA0000D7
:1002400000020020014800F079BA0000BC01002043
:10025000014800F073BA000044020020014800F099
:100260006DBA0000CC020020014800F067BA00001F
:100270008802002070474FF4004000F0D5BB72B6F2
:10028000FEE70022AFF3008030B50E4B054601209B
:100290005C7A012C15D8587A00241C54587A03EB48
:1002A000800045605D7A03F108002A54587A421CA8
:1002B0005A72303008703A2048702F208870CC7005
:1002C000002030BD4806002000B5ADF50F7D02F0DE
:1002D000DDFA012819D017A002F0E6FE01221CA1C8
:1002E000684604F0F1F818B121461AA002F0DCFECD
:1002F0008CAA8DA916A003F09EFC40B121461EA039
:1003000002F0D2FE0DF50F7D00BD24A0E4E78C982D
:100310008D9AD0F8141290F80202891E414350437E
:10032000C0F3CF22C1F3CF218B1A23A002F0BCFE71
:10033000E8E700005344E58DA1E5889DE5A78BE53E
:100340008C96E68890E58A9FEFBC81200D0A00001C
:10035000303A000046696C6553797374656D204DC1
:100360006F756E746564204661696C65642028252C
:1003700064290D0A0000000047657420534443615E
:100380007264204361706163697479204661696CAD
:10039000656420282564290D0A0000005344E58D7A
:1003A000A1E5889DE5A78BE58C96E5A4B1E8B4A509
:1003B00021200D0A000000000D0A2564204D422076
:1003C000746F74616C206472697665207370616308
:1003D000652E0D0A2564204D4220617661696C61AD
:1003E000626C652E0D0A2564204D422020757365D0
:1003F000642E0D0A00000000F8B50024009490F867
:1004000024202546012A12D0012280F824204A689F
:100410001F23072A0DD20668776B521E02EB820259
:1004200093409F430B6893401F43776319E002207A
:10043000F8BD06680D2A0AD2376BD21F02EB820282
:1004400093409F430B6893401F43376309E0F76A6B
:100450000D3A02EB820293409F430B6893401F4387
:10046000F7620A68072306680A2A0AD3F7680A3A75
:1004700002EB420293409F438B6893401F43F76017
:1004800008E0376902EB420293409F438B68934038
:100490001F4337610A68102A01D0112A20D1124B5C
:1004A00002689A4217D193681B0219D4936843F4E7
:1004B000000393600968102912D10C490C4A09689D
:1004C000B1FBF2F101EB8101490000E0491E00910E
:1004D0000029FBD104E0816A41F0200181620124FE
:1004E00080F824502046F8BD002401404C00002034
:1004F00040420F002DE9F04104004FF000057FD08D
:10050000A06A002628B9E66284F82460204600F03C
:1005100081F82046FFF764FEA16AC90600D420B125
:10052000A06A40F01000A0626AE0A16A21F488513C
:1005300041F00201A162334923688B42E16904D191
:10054000B1F5402F01D14FF40021277B4FF4807C7F
:1005500041EA470261680A43A168614508D0012960
:1005600006D0002194F814E0BEF1010F02D00AE099
:100570006146F7E7C7B1A76A47F02007A762E76AB5
:1005800047F00107E7625F6827F469470F435F6040
:10059000236899681C4F394011439960A1686145EF
:1005A0000BD0012909D00CE0DFF860E0A7690EEB61
:1005B00047370F4347F40061E5E7218A0D05A5F5AC
:1005C00080152168CB6A23F470032B43CB6221682A
:1005D00089680F4B1940914208D1E662A16A21F067
:1005E000020141F00101A162BDE8F081A06A20F0A2
:1005F000020040F01000A062E06A40F00100E062FA
:100600000120F1E7003C0140FDF7E1FF00E0FFFFC2
:10061000FE0E1FFF00B585B00021009101910291EF
:10062000039100680E49884218D10E48816941F44F
:1006300000718161816901F400710491816941F067
:10064000080181618069694600F008000490022079
:10065000009003200190044800F0F2F905B000BDBD
:100660000024014000100240000C014070B500B3AE
:10067000F9B14379012B1ED0012646710223037183
:1006800005682C6802F0100340F6FE729A4094430D
:10069000D1E900210A439A4022432A6001680A688E
:1006A000C0249C40A2430A600671002141710846A3
:1006B00070BD012070BD022070BD70B5040003D074
:1006C0002079002510B105E0012070BD657120463C
:1006D00000F008F80220207125610120207100201F
:1006E00070BD000000B585B000210091019102911C
:1006F000039100680E49884218D10E48C16941F043
:100700000051C161C16901F000510491816941F05A
:10071000040181618069694600F0040004901020A2
:10072000009003200190044800F08AF905B000BD54
:100730000074004000100240000801402DE9F05F05
:10074000C16B0A6801680B68046C4FF0040808FA72
:1007500004F8844D844E854FDFF814C2DFF81492FC
:10076000DFF814A2DFF814B2DFF814E218EA020F7F
:1007700065D05FEA437862D50A68920603D40A68B6
:1007800022F004020A60DFF8F0814FF48062016811
:1007900008F1140813011402414524D9A9420DD0CF
:1007A000B1420FD0B9421AD0614515D0494515D094
:1007B000514501D1120312E0594501D104220EE046
:1007C000714501D140220AE06D4D1435A94206D091
:1007D0006B4A2832914201D11A4600E0224667490D
:1007E000091F0A6029E0A94213D0B14215D0B942CD
:1007F00020D061451BD049451BD0514502D14FF453
:10080000800217E0414502D14FF0806212E0594565
:1008100001D104220EE0714501D140220AE0584D79
:100820001435A94206D0564A2832914201D11A46BF
:1008300000E022464B4908394A60C16A71E04FF036
:10084000020808FA04F818EA020F70D05FEA837809
:100850006DD50A68920606D40A6822F00A020A6078
:10086000012180F82110DFF810814FF40072016837
:1008700008F1140813011402414524D9A9420DD0EE
:10088000B1420FD0B9421AD0614515D0494515D0B3
:10089000514501D1120312E0594501D102220EE067
:1008A000714501D120220AE0354D1435A94206D008
:1008B000334A2832914201D11A4600E022462F499C
:1008C000091F0A6029E0A94213D0B14215D0B942EC
:1008D00020D061451BD049451BD0514502D14FF472
:1008E000001217E0414502D14FF0007212E0594565
:1008F00001D102220EE0714501D120220AE0204DF3
:100900001435A94206D01E4A2832914201D11A4616
:1009100000E02246134908394A60002180F820107F
:10092000816A00291CD0BDE8F05F0847FFE7082571
:10093000A540154214D01A0712D50A6822F00E02FB
:100940000A6090F84020C36B012101FA02F25A605C
:10095000816380F82110002180F82010016BE0E70E
:10096000BDE8F09F080002401C0002403000024039
:1009700044000240580002406C000240080402405B
:100980001C04024030B560B11A4B026814219A422F
:1009900009D2194B1344B3FBF1F1890001641749E3
:1009A0000AE0012030BD134B5B421344B3FBF1F16D
:1009B000890001640F490839C163022180F82110C0
:1009C000136843F6F0718B43F0E901142143D0E939
:1009D00002452C432143046921434469214384692E
:1009E00021431943116000214163012242770177BD
:1009F000084630BD08040240F8FFFDBF0000024079
:100A000070B5044600F01EF90546601C02D004488B
:100A10000078044400F016F9401BA042FAD370BDE0
:100A20004000002070470000044910B50A680242E7
:100A300002D00860FFF7F6FF10BD0000140401406B
:100A40002DE9F84FDFF8C8910024A9F1040B2346E3
:100A50000F2709F1040AABF1040ED1E00125A540EE
:100A600006EA0502AA4276D1DFF8A8C14E68A6EBD5
:100A70000C0866452BD00DDC032E34D005DC36B3D4
:100A8000012E19D0022E2FD11BE0112E16D0122EBE
:100A90002AD119E0B8F5881F19D006DCB8F5803FD7
:100AA00015D0B8F5801F1FD111E0B8F5001F0ED08A
:100AB000B8F5041F18D10AE0CB6815E0CB681B1D00
:100AC00012E0CB6808330FE0CB680C330CE08B6886
:100AD0002BB1012B4FF0080303D0456104E0042340
:100AE00002E0056100E00023FF2A01D8064601E08C
:100AF00000F104064FEA840501D9A5F12005D6F8D6
:100B0000008007FA05FC28EA0C0803FA05F548EA14
:100B10000508C6F800804D68ED0070D53E4DAE6901
:100B200046F00106AE61AD6924F0030605F001054B
:100B300000953A4D06EB050CDCF80850A607360F79
:100B400007FA06F825EA0805DFF8D480404503D106
:100B50004FF0000825E052E0DFF8C880404502D1A0
:100B60004FF001081DE0DFF8C080404502D14FF092
:100B7000020816E0DFF8B480404502D14FF00308C8
:100B80000FE0DFF8AC80404502D14FF0040808E0E8
:100B9000DFF8A080404502D14FF0050801E04FF09A
:100BA000060808FA06F848EA0508CCF808804D68F7
:100BB000D9F80060ED024D4601D5164300E096439A
:100BC0002E604D68DAF80060AD02554601D5164337
:100BD00000E096432E604D68DBF80060AD035D4693
:100BE00001D5164300E096432E604D68DEF80060A4
:100BF000ED03754601D5164300E096432E60641C54
:100C00000A681646E2407FF429AFBDE8F88F00007D
:100C100008040140000011100010024000000140D3
:100C200000080140000C0140001001400014014088
:100C300000180140001C01400AB10161704709041D
:100C4000FBE700000148806870470000400000207A
:100C5000024881680278114481607047400000209A
:100C6000074810B5016841F010010160032000F051
:100C700075F80F2000F006F800F024F8002010BDF1
:100C80000020024070B50D4D04464FF47A7128786B
:100C9000B1FBF0F00A490968B1FBF0F001F0DAF8B5
:100CA00048B9102C07D200222146501E00F036F819
:100CB00000206C6070BD012070BD0000400000206D
:100CC0004C0000200C4808B5816941F001018161A8
:100CD000816901F001010091C16941F08051C16158
:100CE000C06900F0805000900448416821F0E06144
:100CF00041F00071416008BD001002400000014059
:100D0000002809DB00F01F0201219140400980000A
:100D100000F1E020C0F8001170470000F0B40E4B65
:100D20001B680C46C3F30223C3F10705042D00D949
:100D30000425191D072901D2002300E0DB1E01262E
:100D400006FA05F1491E214099409E40761E164044
:100D50003143F0BC02F0B8B90CED00E0064900F0F8
:100D6000070208684FF6FF03184040EA0220034AD2
:100D700010430860704700000CED00E00000FA0529
:100D80002DE9F041040004D094F89102002518B137
:100D900007E00120BDE8F08184F89052204600F081
:100DA0004DF8032084F891026571206801F0E2FF9C
:100DB00094E80F0001F0D1FF022698BB00212068C3
:100DC00001F0DFFF70BB002001270BE000EB80018A
:100DD00004EBC1014F740874CD740D624D62401C68
:100DE000C0B28D6221798142F0D8002012E000BFAC
:100DF00000EB800104EBC10181F8515181F85001F1
:100E000081F85351C1F86051C1F86451401CC0B21F
:100E1000C1F8685121798142EAD894E80F0001F0C5
:100E2000A0FF10B184F89162B3E7657384F8917202
:100E3000206801F094FF0020ACE7000008B50068CE
:100E40000649884208D10648C16941F40001C161E0
:100E5000C06900F40000009008BD0000005C004084
:100E600000100240014901200862704700000E4254
:100E700010B501460020284C04292FD00BDC012995
:100E800030D0022929D100F06BF96168C1F38131BA
:100E9000491C49001FE0082920D010291DD1616894
:100EA0002268D20119D51D48C1F38342C903805C71
:100EB0000AD56168194AC1F34041921E515C184A33
:100EC000B2FBF1F1484301E0164948436168490229
:100ED00003D440000321B0FBF1F010BDBDE8104089
:100EE00000F04EB9226AC2F30121012903D1920711
:100EF00001D5C80310BD022905D1626A920702D547
:100F000049F6404010BD0329FCD121688903F9D579
:100F10004FF2244010BD000000100240485300086A
:100F200000127A0000093D002DE9F84305460078DB
:100F3000354CC00754D0E0690026C00008D4E069F1
:100F400040F08050E061E069012600F080500090A0
:100F50002E480168C90512D40168804641F48071A9
:100F60000160FFF76FFE074605E000BFFFF76AFE6E
:100F7000C01B642823D8D8F80000C005F6D5206A25
:100F800010F4407021D0A98801F4407181421CD036
:100F9000206A1F49012220F440700A6000220A6082
:100FA0002062C00711D0FFF74DFE074641F2883896
:100FB00008E000BFFFF746FEC11B414502D90320F0
:100FC000BDE8F883206A8007F4D5206A696820F4B8
:100FD0004070084320621EB1E06920F08050E0615B
:100FE0002878800705D56068A96820F44040084348
:100FF00060602878C00605D56068696920F48000C3
:10100000084360600020DBE70010024000700040F1
:10101000400442422DE9F0470F46050061D0434E9F
:10102000306800F00700B84209D2306820F00700AD
:1010300038433060306800F00700B84251D128686A
:101040003B4C810712D5400703D5606840F4E0604F
:1010500060602878000703D5606840F460506060E5
:101060006068A96820F0F000084360602878C00735
:1010700028D06868012810D02168022810D089077C
:1010800000292EDA616821F0030101436160FFF756
:10109000D9FD804641F288390DE021688903EFE7E8
:1010A0008901EDE7FFF7CEFDA0EB0801494502D924
:1010B0000320BDE8F0876068696800F00C00B0EBC1
:1010C000810FEFD1306800F00700B8420BD93068CB
:1010D00020F0070038433060306800F00700B84265
:1010E00001D00120E5E72878400705D56068E96868
:1010F00020F4E060084360602878000706D5606847
:10110000296920F4605040EAC100606000F038F8BE
:101110006168084AC1F30311515CC8400649086080
:1011200006480068FFF7AEFD0020C2E7002002403D
:1011300000100240585300084C00002044000020DA
:101140000448054900684968044AC1F30221515C1A
:10115000C84070474C00002000100240685300084F
:101160000448054900684968044AC1F3C221515C3A
:10117000C84070474C00002000100240685300082F
:101180000E4A51680E4801F00C03042B11D0082BB5
:101190000FD10C48C1F38343C903C05C0AD5516821
:1011A000084AC1F34041921E515C054A5043B0FBCE
:1011B000F1F07047044948437047000000100240B6
:1011C00000127A003653000800093D002DE9F84F5F
:1011D000040070D02078C04DC00749D06868C0F3C3
:1011E0008100012807D06868C0F38100022809D176
:1011F0006868C00306D52868800339D56068002870
:10120000E7D035E06068B0F5803F0BD010B1B0F5A5
:10121000A02F11D0286820F480302860286820F49E
:10122000802002E0286840F480302860606890B137
:10123000FFF708FD06460AE0286840F48020286091
:10124000F0E700BFFFF7FEFC801B642873D8286816
:101250008003F7D50CE0FFF7F5FC064605E000BF7C
:10126000FFF7F0FC801B6428F0D828688003F7D4CF
:1012700020789A4E80074FF001094FF0000839D5C9
:10128000686810F00C0F07D06868C0F3810002286E
:1012900009D16868C00306D42868800714D520697E
:1012A000012808D110E02069B0B1C6F80090FFF71E
:1012B000C9FC074605E00AE1FFF7C4FCC01B022891
:1012C000C4D828688007F7D52868616920F0F8003D
:1012D00040EAC10028600DE0C6F80080FFF7B2FCCC
:1012E000074604E0FFF7AEFCC01B022823D828689D
:1012F0008007F7D4207800072CD57948A169D9B1A7
:10130000C0F80090FFF79EFC074604E0FFF79AFC48
:10131000C01B02280FD8686A8007F7D571484FF4C0
:10132000FA510068B0FBF1F0009000BF0098411E38
:101330000091FAD20EE080E0C0F80080FFF782FC56
:10134000074604E0FFF77EFCC01B022875D8686AD8
:101350008007F7D42078400760D5E8690027C000EF
:1013600008D4E86940F08050E861E869012700F09E
:10137000805000905C480168C90513D40168834619
:1013800041F480710160FFF75DFC824606E000BF1A
:10139000FFF758FCA0EB0A0064284ED8DBF80000E9
:1013A000C005F5D5E06801280AD008B1052813D09A
:1013B000286A20F001002862286A20F0040002E078
:1013C000286A40F001002862E06841F2883B98B149
:1013D000FFF738FC82460BE0286A40F004002862E0
:1013E000EEE700BFFFF72EFCA0EB0A0159455AD8E3
:1013F000286A8007F6D50CE0FFF724FC824605E05A
:10140000FFF720FCA0EB0A0159454CD8286A800759
:10141000F6D41FB1E86920F08050E861E06988B334
:101420006968C1F38101022944D00228C6F86080AE
:1014300004D0FFF707FC044638E034E0FFF702FC75
:10144000074604E0FFF7FEFBC01B02282BD82868E4
:101450008001F7D4206AB0F5803F05D16868A168A3
:1014600020F4003008436860D4E908010843696843
:1014700021F4741108436860C6F86090FFF7E2FB3E
:10148000044606E025E000BFFFF7DCFB001B022856
:1014900009D828688001F7D51BE000BFFFF7D2FB11
:1014A000001B022802D90320BDE8F88F28688001BC
:1014B000F4D40EE00128F7D06868226A00F4803185
:1014C000914204D1616A00F47010884201D0012079
:1014D000EAE70020E8E70000001002400000424276
:1014E000800442424C00002000700040704770476A
:1014F00010B5044600680168C90717D04168C907DC
:1015000014D040684007204607D5FFF7F0FF216858
:101510006FF004004860042002E0FFF7E7FF0120BD
:1015200060742068416821F00101416010BD2DE91F
:10153000F04791460C465FEA00084AD084B3D8F8D9
:1015400000004068400744D4404601F01EF84FF4C4
:1015500061620546B0FBF2F1B0FBF2F302FB1350FF
:101560003C23B0FBF3F0B5FBF2F6607002FB1650C3
:10157000B0FBF3F203FB1200A070182931D318203E
:10158000B1FBF0F7B1FBF0F200FB12102070404607
:1015900000F0F4FF411C04D0A84202D9461B02E02F
:1015A00017E04FF0FF36A7EB071000EB4000C0EB51
:1015B000001005EBC0152946404601F035F840B94A
:1015C000701C01D0711900E03146404601F018F856
:1015D00010B10120BDE8F0873946404600F03BFFDE
:1015E00000E02170B9F1000F0BD0207800F028FF47
:1015F0002070607800F024FF6070A07800F020FF79
:10160000A0700020E6E7000070B5040003D0607C05
:10161000002610B105E0012070BD2674204600F0C0
:101620003DF802206074204600F08AF9042550BB82
:10163000204600F067FF30BB2068416821F00701B9
:101640004160A06820B11448016821F001010160E7
:101650001148001F0168A26821F460711143016004
:101660006068411C04D10120FFF702FC58B1401E04
:101670002268C0F303419160216880B2C8602046AF
:1016800000F05AFF08B16574C5E7E6730120607386
:10169000A0736074002070BD306C004008B5006815
:1016A0000D49884217D1FFF7DDFB0C48C16941F0B5
:1016B0000061C161C0690A4900F00060009001202A
:1016C0000860002211460320FFF728FBBDE8084010
:1016D0000320FFF715BB08BD0028004000100240A2
:1016E0003C0442422DE9F8434FF0000617460D46F0
:1016F000040000960FD075B1207C01280ED04FF069
:10170000010984F810900220607400226946204686
:10171000FFF70DFF20B10120BDE8F8830220FBE7B1
:101720009DF800004FF4616148439DF80110C1EB42
:10173000011100EB81009DF8021000EB01082878F0
:10174000E7B100F074FE4FF4616100FB01F76878C7
:1017500000F06DFEC0EB001007EB8007A87800F0EA
:1017600066FE3918414501D217480144204600F071
:1017700047FF70B1042060742674CCE74FF46161B8
:1017800048436978C1EB011100EB8100A97801445D
:10179000E8E72068416821F00201416020680168A3
:1017A00041F0020101600948016841F40031016023
:1017B00006480830016841F40031016084F8119056
:1017C00026740020A8E700008051010000040140B9
:1017D0002DE9F0410D4604003BD0C5B3207C012823
:1017E0003AD04FF0010884F8108002206074E87845
:1017F00072B300F01CFEE073687800F018FE6073AE
:10180000A87800F014FEA073C2B2617BE07B00F008
:10181000CCFE20732870204600F0B7FE4FF46161C3
:10182000B0FBF1F1002518292DD91822B1FBF2F1F6
:10183000A1EB011101EB4101C1EB011100EBC1165C
:101840003146204600F0F0FE0427C8B90BE000E066
:1018500004E00120BDE8F0810220FBE7E073687836
:101860006073A878CFE7204600F088FE411C0AD0BC
:10187000B04208D206490144204600F0C1FE10B132
:1018800067742574E5E784F8118025740020E1E78A
:10189000805101002DE9F0410D46040024D01DB314
:1018A000207C012823D04FF0010884F8108002200A
:1018B00060742878EAB100F0BAFD4FF4616100FB72
:1018C00001F6687800F0B3FDC0EB001006EB80066F
:1018D000A87800F0ACFD35182946204600F0A4FE9B
:1018E0000026042710BB0FE00120BDE8F081022094
:1018F000FBE74FF4616148436978C1EB011100EBEC
:101900008100A9784518E7E72068416821F00501C2
:101910004160204600F032FE411C0AD0A84208D2A5
:1019200006490144204600F06BFE10B1677426742E
:10193000DAE784F8118026740020D6E78051010090
:1019400070B504000AD02068416821F008014160A8
:10195000FFF778F905464FF47A7608E0012070BD6C
:10196000FFF770F9401BB04201D9032070BD206819
:1019700040680007F4D5002070BD70B5040009D0A0
:10198000606A002540B125616561A56294F8510047
:1019900040B10CE0012070BD6068B0F5827FF4D0EA
:1019A000E561F2E784F85050204600F03FF802204D
:1019B00084F851002068016821F040010160A0888E
:1019C000218900F4827001F404410843A18901F4E3
:1019D00000610843217C01F002010843217D01F0F0
:1019E00001010843218B01F400710843217F01F0BC
:1019F0003801084394F8201001F080010843218D3C
:101A000001F40051084321680860A069042101EA3B
:101A10001040216848602068C16921F40061C161FB
:101A20006565012084F85100002070BD2DE9F04368
:101A300085B00024009401940294039405467F4BE2
:101A4000D0F800C07E4802210322102780269C4542
:101A50004FD1836943F480538361836903F48053D6
:101A60000493836943F0040383618069DFF8D481C0
:101A700000F004000490A020CDE900010392694623
:101A80004046FEF7DDFF4020CDE9000469464046B0
:101A90000294FEF7D5FFDFF8B4816B4940464FF45E
:101AA0000059C0E90246C8F81040C8F81440C8F808
:101AB0001840C8E90017C8F81C90FEF763FF08B18A
:101AC000FEF7DDFB6048614F1438C5F848804437A5
:101AD000C8F82450C7E90004C7E902463C617C61AC
:101AE000C7E906493846A0E0EF647D6205B0BDE86D
:101AF000F083DFF85C81574BC44545D1D0F81CC05A
:101B00004CF4804CC0F81CC0D0F81CC00CF4804CC5
:101B1000CDF810C0D0F818C04CF0080CC0F818C0B0
:101B20008069039200F0080004904FF42040CDE952
:101B30000001694698461846FEF782FF4FF4804040
:101B4000CDE90004694640460294FEF779FFDFF8CC
:101B5000FC803D4908F1880840462831C0E902462A
:101B6000C8F81040C8F81440C8F81840C8E9001771
:101B7000C8F81C40FEF706FF08B1FEF780FBC5F869
:101B80004880C8F82450B1E7DFF8CC80C445ADD117
:101B9000D0F81CC04CF4004CC0F81CC0D0F81CC0DD
:101BA0000CF4004CCDF810C0D0F818C04CF0080C64
:101BB000C0F818C08069039200F008000490282043
:101BC000CDE90001694698461846FEF739FFCDE990
:101BD0000074694640460294FEF732FFDFF86C80DD
:101BE0001E4908F1CC084046C0E90246C8F810403A
:101BF000C8F81440C8F81840C8E90017C8F81C40D5
:101C0000FEF7C0FE08B1FEF73AFB1448144FC5F8C2
:101C100048801438C8F82450C7E90004C7E90246D0
:101C20003C617C61BC613846FC61FEF7ABFE00287C
:101C30003FF45AAFFEF723FB56E7000000300140A7
:101C4000001002400008014030000240BC010020AA
:101C500000380040000C0140003C00401C040240E1
:101C6000CC0200202DE9FF4F81B01D46934604466B
:101C70004FF001090E9EFEF7E5FF074694F851006C
:101C80006168012806D0B1F5827F3CD1A168C9BB4B
:101C9000042838D10298002871D0BBF1000FFBD086
:101CA000002DF9D094F8500001282CD04FF0010AF3
:101CB00084F850A094F85100042802D0052084F83C
:101CC00051004FF00008C4F85480C4F838B0E587DC
:101CD000A58702992163E586A586C4F84080C4F8EB
:101CE000448020680168490603D4016841F040013E
:101CF0000160E068B0F5006F606808D0F0B3012DB6
:101D000049D081E0FFE7022005B0BDE8F08F08B1BF
:101D1000012D39D1206B21680088C860206B801CA0
:101D20002063E08E401EE0862EE0206881688907EF
:101D30000FD5E18E69B1B9F1010F0AD1216B098884
:101D4000C160206B801C2063E08E401EE0864FF057
:101D5000000920688168C9070CD0E18F51B1C068C3
:101D6000A16B0880A06B801CA063E08F401EE08701
:101D70004FF00109FEF766FFC01B01E00BE067E0D2
:101D8000B04201D3701C50D1E08E0028CDD1E08F3D
:101D90000028CAD13EE0206B216800780873206BD0
:101DA000401C2063E08E401EE0862DE020688168A4
:101DB00089070FD5E18E69B1B9F1010F0AD1216B05
:101DC00009780173206B401C2063E08E401EE08682
:101DD0004FF0000920688168C9070CD0E18F51B12C
:101DE000C068A16B0870A06B401CA063E08F401E10
:101DF000E0874FF00109FEF725FFC01BB04202D378
:101E0000701C01D011E086B1E08E0028CED1E08FA9
:101E10000028CBD13A463146204600F01DFE50B195
:101E20002020606584F8508012E084F851A084F886
:101E30005080032068E7A06818B92068C1688068EE
:101E4000009084F851A084F85080606D0028F1D093
:101E5000012059E710B5401EB0F1807F01D3012069
:101E600010BD4FF0E02460610F21601701F02CF9E4
:101E70000020A06107202061002010BD70B5040083
:101E800004D094F84100002510B106E0012070BD97
:101E900084F84050204600F023F8242084F84100C4
:101EA0002068C16821F40051C160204600F0C0FEE6
:101EB0002068016921F4904101612068416921F0A5
:101EC0002A0141612068C16841F40051C160656424
:101ED000202084F8410084F842006563002070BD32
:101EE00030B585B0002400940194029403940068F6
:101EF0001449884224D11448816941F480418161A8
:101F0000816901F480410491816941F0040181619A
:101F100080690E4D00F0040004904FF400700090B2
:101F2000022001900320039069462846FEF788FDB1
:101F30002815CDE90004694628460294FEF780FD85
:101F400005B030BD003801400010024000080140DB
:101F50002DE9F843044690F84100984616460D4690
:101F6000202802D00220BDE8F88385B17EB1002090
:101F70006064212084F84100FEF764FEA684814657
:101F8000E684A0682027B0F5805F02D003E001203E
:101F9000E9E7206910B12E4600250EE000260CE08E
:101FA0008021204600F0A0FEA8B9C6B116F8010BAA
:101FB00021684860E08C401EE084E08C4B464FF086
:101FC0000002CDF800800028EAD14FF04001204601
:101FD00000F08AFE40B184F841700320C3E735F871
:101FE000020BC0F30800E3E784F841700020BAE771
:101FF000FEE700003EB500211148009101910F4A13
:102000000291026081600173017501244FF4602226
:102010000461C2614160FEF76DFA08B1FEF72FF965
:102020000920CDE900040620029069460448FEF725
:10203000E3F9002801D0FEF722F93EBD002401405B
:102040005C0000201CB500240C4900940A4801944F
:1020500008600846FEF731FB08B1FEF710F900945E
:102060000022694605480194FEF700FB002801D0D4
:10207000FEF705F91CBD0000007400408C00002034
:102080001D4808B5416941F001014161416901F014
:1020900001010091416941F0020141614069002262
:1020A00000F00200009011460C20FEF737FE0C20D5
:1020B000FEF726FE002211460D20FEF72FFE0D2012
:1020C000FEF71EFE002211460F20FEF727FE0F200E
:1020D000FEF716FE002211463820FEF71FFE3820BC
:1020E000FEF70EFE002211463920FEF717FEBDE86E
:1020F00008403920FEF704BE0010024010B5044924
:102100000448FEF7BEF80249491E087010BD0000E1
:1021100039000020240000202DE9F04F85B0002474
:1021200046480094019402940394816941F010019F
:102130008161816901F010010491816941F0200100
:102140008161816901F020010491816941F00401FC
:102150008161816901F004010491816941F0080104
:1021600081618069DFF8D89000F008004FF487752E
:102170000490002229464846FEF75EFDDFF8C4A021
:1021800041F6F077002239465046FEF755FD40F201
:102190008138002241462C48FEF74EFDDFF8ACB0F6
:1021A000002204215846FEF747FD0F20CDE9000428
:1021B000694650460294FEF743FC0095022601252D
:1021C0000396CDE9015469464846FEF739FC00976D
:1021D0000396CDE9015469465046FEF731FCCDF82F
:1021E00000800396CDE9015469461748FEF728FCA4
:1021F000E80300901648CDE9010469464846FEF719
:102200001FFC0420CDE90005CDE902466946584689
:10221000FEF716FC4020CDE9000469460A48029406
:10222000FEF70EFC002203212820FEF777FD282070
:10223000FEF766FD05B0BDE8F08F0000001002401B
:102240000008014000100140000C01400014014052
:10225000000011101FB50024234803940294009439
:10226000204901940160611E41604FF480718160DA
:10227000FFF7CAF908B1FEF702F812208DF80C003A
:102280008DF80D408DF80E40012203A91648FFF786
:1022900001FB08B1FDF7F3FF05208DF808000320CE
:1022A0008DF8090021208DF80A0025208DF80B00FB
:1022B000012202A90C48FFF78BFA08B1FDF7DFFFF6
:1022C0008DF800408DF801408DF8024001226946EA
:1022D00005480194FFF706FA002801D0FDF7CFFF6B
:1022E0001FBD000000280040A0000020104810B5CD
:1022F0000E4901604FF48271416000218160C1602C
:102300004FF400720161C0E905120822C0E90721FB
:10231000416281620A21C162FFF72FFB002803D0CE
:10232000BDE81040FDF7ABBF10BD0000003001401C
:10233000B40000200F4810B50D4901604FF48271C0
:10234000416000218160C1604FF400720161C0E909
:102350000512C1610162416281620A21C162FFF717
:102360000CFB002803D0BDE81040FDF788BF10BD6E
:10237000003800400C0100200F4810B50D490160E5
:102380004FF48271416000218160C1604FF400729E
:102390000161C0E90512C1610162416281620A21E5
:1023A000C162FFF7EAFA002803D0BDE81040FDF74C
:1023B00066BF10BD003C0040640100200C4810B511
:1023C0000A4901604FF4E1314160002181600C2233
:1023D000C160C0E904128161C161FFF74FFD0028AF
:1023E00003D0BDE81040FDF74ABF10BD00380140E2
:1023F000100300200B4810B5094901600821017144
:102400000221817100218172C1720173FEF7B8FC53
:10241000002803D0BDE81040FDF731BF10BD00001B
:10242000005C004058030020FEE7FEE7704701090A
:1024300001EB810100F00F0000EB4100C0B27047DA
:10244000002102E00A38C0B2491C0A28FAD2090762
:1024500040EA116070472DE9F04104460025C07B39
:10246000627BA37B42E0012A16D0032A14D0052AFE
:1024700012D0072A10D0082A0ED00A2A0CD00C2A13
:102480000AD0042A10D0062A0ED0092A0CD00B2A12
:102490000AD0022A0DD028E01F2B0CD30C2A05D11C
:1024A00001221346401C20E01E2B04D30123521CA2
:1024B0001BE01C2B02D203F1010316E011D183B201
:1024C0009E0710D16426B3FBF6F706FB173636B924
:1024D0004FF4C876B3FBF6F706FB17331BB91D2381
:1024E00003E01D2B01D1032201236D1C8D42BAD3C1
:1024F000D1B2E0736173DAB2A27300F056F82073C0
:10250000BDE8F08170B50446FEF79CFB05464FF42C
:102510007A7606E0FEF796FB401BB04201D9032015
:1025200070BD206840688006F4D52068416841F09D
:1025300010014160002070BD70B50446006841681C
:1025400021F010014160FEF77DFB05464FF47A76DD
:1025500007E000BFFEF776FB401BB04201D9032025
:1025600070BD206840688006F4D5002070BD000072
:102570000148FEF7BDBF0000A00000200168086A06
:10258000496A89B241EA00407047006881698AB2AD
:10259000C1698BB2816989B28A4203D0C06961F393
:1025A0001F40704743EA02407047F0B56424C1EB16
:1025B000C1030927A500072603EB01130329B3FB79
:1025C000F7F100F5FA60114401440AD2401EB0FB55
:1025D000F4F201EB9001B0FBF5F0891A0844001DFC
:1025E00008E0B0FBF4F201EB9001B0FBF5F0891AC2
:1025F0000844801CB0FBF6F106FB1100C0B2F0BD30
:1026000070B50D4606460024FFF77CFF48B93168D7
:10261000280C08623168A8B248623046FFF78CFF88
:1026200000B10124204670BD70B50D460646002459
:10263000FFF768FF48B93168280C88613168A8B293
:10264000C8613046FFF778FF00B10124204670BD15
:10265000044B20B1002210211846FEF7EDBA0122EA
:10266000F9E700000010014070B505460122002185
:10267000092000F0B9F910F0FF0404D11021284618
:1026800000F078F804460020FFF7E2FF0CB10120CB
:1026900070BD002070BD1FB56846FFF7E5FF10B1A3
:1026A000002004B010BD9DF800100120B0EB911F78
:1026B00009D19DF808209DF8091000EB022008447C
:1026C00000048009EDE79DF805009DF80A1000F070
:1026D0000F0000EBD1109DF809109DF8072001F0C4
:1026E000030100EB41019DF80800800900EB820026
:1026F0009DF8062002F0030200EB8220401CC91F57
:102700008840CEE72DE9F041064619481546407845
:10271000062800D049024FF40077012D4FF0010246
:102720001AD0122000F060F93946304600F022F845
:102730006D1E044606F5007615F0FF0501D0002C4D
:10274000F2D0012200210C2000F04EF90020FFF70A
:102750007FFF2046BDE8F081112000F045F910F020
:10276000FF04F3D13946304600F004F80446EDE7A3
:102770002200002070B505460C460120FFF768FFD7
:10278000FF2002F011FD06466420FEF739F9FE2E07
:10279000F6D103E002F008FD05F8010B641EA4B2B7
:1027A0004FF0FF00F6D202F0FFFCFF2002F0FCFC2D
:1027B000002070BD70B50C460546FF2002F0F4FC09
:1027C000FF28FAD1204602F0EFFCFD2C18D000249F
:1027D0004FF40076285D02F0E7FC641CA4B2B4421A
:1027E000F8D3FF2002F0E0FCFF2002F0DDFCFF2028
:1027F00002F0DAFC00F01F00052801D0022070BDB5
:10280000002070BD70B506461F4815460C4640783E
:10281000062800D04C02012D14D0012809D0012235
:102820000021372000F0E0F801222946172000F0AF
:10283000DBF801222146192000F0D6F810F0FF0441
:102840000BD01BE001222146182000F0CDF810F03B
:10285000FF0413D1FE2130460DE0FC213046FFF786
:10286000A9FF6D1E06F5007615F0FF0501D00028C2
:10287000F3D0FD210020FFF79DFF04460020FFF765
:10288000E7FE204670BD0000220000202DE9FC413B
:102890000027DFF84C81009738200197C8F81C000A
:1028A0003846FFF7D5FE4F4D0024287802F07CFC17
:1028B000641CA4B20A2CF8D300219522084600F02B
:1028C00093F8C0B20128F7D16F7087224FF4D57109
:1028D000082000F089F8C0B2012873D100246E46A8
:1028E000287802F061FC3055641CE4B2042CF7D364
:1028F0009DF802004FF6FE74012803D19DF80300F5
:10290000AA281FD001220021372000F06DF80122F3
:102910000021292000F068F8C0B201283DD802202B
:10292000687001220021372000F05EF801220021AA
:10293000292000F059F810F0FF0F3BD0641EA4B21C
:10294000EFD237E04FF0804701220021372000F01E
:102950004BF801223946292000F046F810F0FF0F0D
:1029600002D0641EA4B2EFD2B4B1012200213A20F9
:1029700000F03AF880B90024FF2002F015FC305531
:10298000641CE4B2042CF7D39DF80000400601D586
:10299000062000E00420687014E001206870012225
:1029A0000021104600F020F810F0FF0F02D0641E46
:1029B000A4B2F4D22CB101225102102000F014F87C
:1029C00000B16F700020FFF743FE0020C8F81C0024
:1029D000687810B10020BDE8FC810120FBE7000011
:1029E000B4000020220000202DE9F04105461746E2
:1029F0000C460020FFF72CFE1420FEF701F8012002
:102A0000FFF726FE134E307802F0CEFBFF28FAD1F6
:102A100045F0400002F0C8FB200E02F0C5FBC4F3F5
:102A2000074002F0C1FBC4F3072002F0BDFBE0B297
:102A300002F0BAFB384602F0B7FB0C2D02D1307819
:102A400002F0B2FBFF2002F0AFFB0106FAD4BDE8B2
:102A5000F081000022000020F8B515460E460B4616
:102A6000009204460122022100F010F840B93346DA
:102A7000002280212046009500F008F8002804D0AC
:102A8000606D40F0200060650320F8BD2DE9F8433B
:102A90001E46914688460446089DFEF7D3F8401B23
:102AA000351AFEF7CFF8074625480068C0F3CB304B
:102AB000684338E0701C37D0FEF7C4F8C01BA8424A
:102AC00003D215B1009860B32CE02068416821F072
:102AD000E00141606068B0F5827F0BD1A068B0F57D
:102AE000004F02D0B0F5806F04D12068016821F05A
:102AF00040010160A06AB0F5005F09D1206801685B
:102B000021F4005101602068016841F40051016026
:102B1000012084F85100002084F850000320BDE813
:102B2000F8830025401E00902068816838EA010083
:102B300004D000214945BDD10020F0E70121F9E78B
:102B40004C0000200149C86170470000B40000201B
:102B50007047FEF77DB830B595B028216846FDF77F
:102B60000CFB14210AA8FDF708FB18210FA8FDF79C
:102B700004FB0121052000240090CDE902414FF41F
:102B80008030019002250491CDE907504FF4E01008
:102B900009906846FEF71AFB08B172B6FEE70F20EF
:102BA000CDE90A054FF48060CDE90C4002210AA866
:102BB0000E94FEF72FFA08B172B6FEE713200F90BD
:102BC0004FF480701090C001119014940FA8FEF77C
:102BD000ABF9002801D072B6FEE715B030BD7047E2
:102BE00001680C3151E8002F22F4907241E8002373
:102BF000002BF5D10168143151E8002F22F00102B9
:102C000041E80023002BF5D1016B012909D10168AE
:102C10000C3151E8002F22F0100241E80023002B74
:102C2000F5D1202180F84210002101637047000097
:102C300070B5044600680169E26821F4405111430F
:102C400001612169A0680843616908432168CA6875
:102C500041F20C639A430243CA6020684169A26949
:102C600021F44071114341611E492068884202D11C
:102C7000FEF776FA01E0FEF763FA00EBC00101EB24
:102C80000012606864218000B2FBF0F3B3FBF1F343
:102C90006FF018067343B2FBF0F5B2FBF0F605EBEC
:102CA0008305322303EB0515B5FBF1F5B6FBF1F611
:102CB00005F0F00505EB0615B2FBF0F6B2FBF0F0FF
:102CC000B0FBF1F06FF01802504306EB800003EB0D
:102CD0000010B0FBF1F0216800F00F00284488607C
:102CE00070BD0000003801402DE9F84398461746B2
:102CF0000D460446089E24E0701C22D0FDF7A2FF7A
:102D0000A0EB0800B0421AD8CEB12068C1684907CC
:102D100017D5802D15D0402D13D00168C943090760
:102D20000FD401680025406800902046FFF758FF47
:102D30000820606484F840500120BDE8F883032037
:102D4000FBE72068006835EA000004D00020B842A4
:102D5000D2D00020F1E70120F9E7002070470020E1
:102D60007047012120F8401F0021018081800182ED
:102D70000846704730F8401F21F43F410180002091
:102D800070470020704710B5FFF780FD10F0FF007E
:102D900009D03820FFF7D6FEFF2002F005FA002008
:102DA000FFF7D0FE012010BD10B5144641B1012936
:102DB0001DD0022914D0032915D00424204610BDAB
:102DC0000120FFF745FC1420FDF71AFEFF2002F05A
:102DD000EBF9FF28F7D100242046FFF739FCEDE797
:102DE0004FF4007000E0082010800024E6E7FFF7B1
:102DF00052FC2060F9E770B514460D460BB150B98E
:102E000001E0042070BD1A4621462846FFF77AFCEF
:102E100010F0FF00F6D0012070BD002804D001287A
:102E200003D0022801D0012070470020704770B500
:102E300014460D460BB150B901E0042070BD1A468E
:102E400021462846FFF7DEFC10F0FF00F6D00120F7
:102E500070BDFEE770B5ADF58C6D15460E460446A7
:102E6000FFF714FD012819D02FA000BF00F01CF9B6
:102E7000012234A18BA801F027FB0D2810D00028D7
:102E80002AD031A000F010F912222146684601F044
:102E900049FB0446E043400720D022E02FA0E5E7AD
:102EA00035A000F001F9002211462BA001F070F8C6
:102EB00008B137A0E6E73BA000F0F6F8012221A117
:102EC000002001F001FB01221EA18BA801F0FCFAF9
:102ED0000028D9D138A0D5E747A0D3E74BA000F010
:102EE000E3F86846839900F011FF0CB150A00BE0A5
:102EF00055A000F0D9F80DF25C432A4631466846E9
:102F000001F046FC68B15AA000F0CEF8684600F027
:102F10007DFE01220BA1002001F0D6FA0DF58C6D8B
:102F200070BD5AA0F0E700005344E58DA1E5889DEF
:102F3000E5A78BE58C96E68890E58A9FEFBC81201B
:102F40000D0A0000303A0000E68C82E8BDBDE5A421
:102F5000B1E8B4A521200D0A000000005344E58D1E
:102F6000A1E5889DE5A78BE58C96E5A4B1E8B4A51D
:102F700021200D0A00000000E6B2A1E69C89E69639
:102F800087E4BBB6E7B3BBE7BB9F21200D0A000077
:102F9000E6A0BCE5BC8FE58C96E5A4B1E8B4A5211C
:102FA000200D0A00E6A0BCE5BC8FE58C96E6889073
:102FB000E58A9F21200D0A005344E58DA1E5B7B2B3
:102FC000E7BB8FE68890E58A9FE68C82E8BDBDEF7F
:102FD000BC8CE58FAFE4BBA5E8BF9BE8BF9BE8A135
:102FE0008CE69687E4BBB6E58699E585A5E6B58BC4
:102FF000E8AF95210D0A0000E68C82E8BDBDE688A9
:1030000090E58A9F21200D0A00000000E58DA1E5D2
:10301000AD98E582A8E5B7B2E6BBA1EFBC8CE5862A
:1030200099E585A5E5A4B1E8B4A5210D0A00000045
:10303000E68993E5BC80E69687E4BBB6E5A4B1E8F3
:10304000B4A5210D0A000000E68993E5BC80E6885E
:1030500090E58A9F2FE5889BE5BBBAE69687E4BB9F
:10306000B6E68890E58A9FEFBC81200D0A0000003B
:10307000E69687E4BBB6E58699E585A5E5A4B1E8C3
:10308000B4A5EFBC81200D0A00000000E69687E49D
:10309000BBB6E58699E585A5E68890E58A9FEFBCF5
:1030A00081200D0A000000000FB4054B10B503A9E4
:1030B000044A029800F028F810BC5DF814FB0000E8
:1030C000094D0008580000200907090E002804DBFC
:1030D00000F1E02080F80014704700F00F0000F1CC
:1030E000E02080F8141D704702E008C8121F08C1D4
:1030F000002AFAD170477047002001E001C1121F79
:10310000002AFBD1704700002DE9FF4F89B09B4694
:103110000446002506E025280BD05A460B99904717
:10312000641C6D1C20780028F5D10DB02846BDE840
:10313000F08F0027B8460122474900E0074314F802
:10314000013F203B02FA03F00842F7D120782E28F5
:1031500019D114F8010F47F004072A280ED06FF098
:103160002F022078A0F1300109290CD808EB880142
:1031700002EB410100EB0108641CF2E70A98641CB1
:1031800050F8048B0A9020780028CED0642808D00C
:10319000692806D075281ED05A460B9990476D1C99
:1031A00058E00A994FF00A0901C90A91002802DA89
:1031B00040422D2102E0390504D52B218DF8201045
:1031C000012103E0F90704D02021F7E78A4608AE81
:1031D0000DE00021FAE70A994FF00A0901C90A91A6
:1031E000F7E74946FCF7D4FF303106F8011D002807
:1031F000F7D1ADEB060000F12009780701D44FF0BC
:103200000108C84502DDA8EB090000E00020804667
:10321000002706E008A85A46C05D0B9990476D1C30
:103220007F1C5745F6DB04E030205A460B99904747
:103230006D1CB8F10001A8F10108F5DC05E016F8F5
:10324000010B5A460B9990476D1CB9F10001A9F189
:103250000109F4DC641C65E70928010010B5044687
:10326000002084F80402401EC4F82C02204601F01D
:10327000CDFE08B1032010BDB4F8FE01A0F52A412F
:10328000553901D0022010BD94F8360094F8391059
:1032900094F8372040EA016194F83800000440EACD
:1032A000022001430A48B0EB012F0DD014F8521F41
:1032B000E278637841EA0261A278120442EA0322CA
:1032C0001143B0EB012F01D1002010BD012010BD32
:1032D0000046415400E0401C02780AB18A42FAD10B
:1032E000D0B27047F0B50022184B144602EB4206EC
:1032F00053F8265085B1D0F80072BD420DD103EBD2
:103300008605D0F808626F68B74206D12D89B0F8FB
:103310000662B54204D000E00124521C022AE5D323
:10332000022A01D079B904E05CB9022909D012203F
:10333000F0BD02EB420003EB80004089B0F5807FD6
:1033400001D00020F0BD1020F0BD000030060020AC
:1033500030B50021064A0C4601EB410352F82350D8
:10336000854201D142F82340491C0229F4D330BDE3
:1033700030060020D0F82422D0F80002490A90F844
:103380000202B1FBF0F0121D02CA19B1884203D348
:10339000401AF8E700207047116808447047D0F8D9
:1033A0001422891E921E8A4201D800207047D0F84C
:1033B000282290F8020201FB002070472DE9F0411D
:1033C0000F00054606D001F0EBFC02280BD20120CD
:1033D000BDE8F081D5F80C621EB1D5F81402B042F8
:1033E00008D8012606E0411CF2D0D5F8141281421B
:1033F000EED83E463446D5F81402641CA04202D8EA
:103400000224022E0AD32146284601F0C9FC38B115
:10341000411CDDD00128DBD0B442ECD10020D7E73D
:103420006FF070422146284601F00BFE30B957B1CB
:1034300022463946284601F004FE20B1012812D068
:1034400001242046C4E7C5F80C42D5F81002411CFF
:10345000F7D0401EC5F8100295F8050240F00100B3
:1034600085F80502EDE74FF0FF34EAE72DE9F84F64
:10347000884682460D6800E06D1C28782F28FBD016
:103480005C28F9D00024DAF820722646A85D761C64
:10349000202817D32F2815D05C2813D0FF2C32D228
:1034A000012101F061FA5FEA00092CD0B9F1800F27
:1034B00004D2014668A0FFF70DFF20BB27F8149047
:1034C000641CE3E7AA19C8F80020202801D20425CB
:1034D00017E0002515E000BF07EB440030F8020CB0
:1034E00020280DD02E280BD06CB1002027F8140016
:1034F0000B222021DAF8180201F081FD002606E0F7
:10350000641E002CE8D10620BDE8F88F761C37F841
:1035100016002028FAD02E28F8D01EB145F0030559
:1035200000E0641E2CB107EB440030F8020C2E289A
:10353000F7D1002081464FF0080B009037F81600B5
:1035400006F101065FEA000824D0B8F1200F04D08C
:10355000B8F12E0F04D1A64202D045F00305EDE7E5
:103560000098584501D2A6421AD1BBF10B0F0FD0DB
:10357000A64201D045F003050CD84FF0080000909A
:103580004FEA896026464FF00B0B4FEA1069D5E7EA
:1035900045F00305DAF818020178E52938D039E05A
:1035A0004046B8F1800F10D3002101F0DDF95FEA49
:1035B000000805D02B4901EB080010F8800C80466C
:1035C00045F00205B8F1000F04D0014626A0FFF730
:1035D00081FE20B14FF05F0845F003050FE0A8F130
:1035E0004100192802D849F0020908E0A8F1610059
:1035F000192804D8413049F001091FFA80F8DAF897
:103600001822009902F801800098401C009095E76C
:1036100005210170BBF1080F03D14FEA89604FEA21
:103620001069C9F38100032803D06FEA09018907F3
:1036300001D145F00205A90709D409F003010129C8
:1036400001D145F01005012801D145F00805DAF84F
:103650001802C572002057E7222A3A3C3E3F7C7F81
:1036600000000000705300082B2C3B3D5B5D000008
:10367000401E022815D20C4B00EB400203EB8201E6
:103680004889B0F5807F05D008B1401E80B24881DE
:1036900010B104E00020FAE7002043F822000020E7
:1036A0007047022070470000300600202DE9FC5FC3
:1036B0000546002100F014FA00286ED1FF204FF6D5
:1036C000FF7A00908146A5F824A200BFD5F8101219
:1036D000D5F8000201F09AFC06000ED1D5F814428C
:1036E000207848B1E17AE52801F03F0170D00A075F
:1036F00004D50F296CD107E0042674E00F2903D00C
:10370000B9F1000F4DD052E0D5F8201291B3420626
:1037100008D5627B009220F04000B5F80622814671
:10372000A5F82422484534D1627B0098824230D1EA
:1037300001912078A04620F04000401E00EB80015F
:103740000027DFF8A8B001EBC00601241BF8071022
:1037500001EB0800008874B101F022F90446FF2E45
:1037600017D2019830F81600761C01F019F9A04222
:103770000FD102E030E050450BD17F1C0D2FE5D377
:1037800098F80000400609D544B1019830F81600B9
:1037900020B1FF2000F0FF091EE025E0A9F10100A3
:1037A000F8E7204601F018FD009988421BD0D5F8B3
:1037B0001802C17AC9070BD10A2101E0491E06D3BC
:1037C00014F8012B10F8013BD21AF7D000E052B1E7
:1037D0004FF0FF09A5F824A20021284600F008F8C0
:1037E00006003FF473AF3046BDE8FC9FF05300087D
:1037F0002DE9F041B0F806620446761C30040F460D
:10380000000C37D0D4F8100298B3310773D1401CA4
:10381000C4F81002D4F80C12D4F8000231B190F8B8
:103820000222521E12EA161F05D064E0B0F8080208
:10383000B0421FD95FE001F0B3FA054601281ED956
:10384000681C3AD0D4F80002D0F81412A94249D822
:103850007FB1D4F80C12FFF7B1FD05000DD0012D9A
:103860000DD0681C29D0D4F8000201F01DFD20BB4A
:1038700007E0FFE70420BDE8F0810720FBE7022016
:10388000F9E74FF400720021D4F8000201F0B7FB11
:103890002946D4F80002FFF782FDD4F80012002771
:1038A0004FF00108C1F82C0211E000BF80F804823B
:1038B000D4F8000201F0F8FC08B10120DBE7D4F8ED
:1038C0000002D0F82C12491C7F1CC0F82C12D4F82E
:1038D000000290F80212B942E8D8D0F82C12C91BA5
:1038E000C0F82C12C4F80C522946D4F80002FFF795
:1038F00056FDC4F81002A4F80662D4F8000206F0DF
:103900000F0100EB4110C4F814020020B3E70000DF
:103910002DE9FF5FD0F818720446D0F820620C221F
:103920003946684601F062FB9DF80B00C0071AD0CB
:103930000020F8720125C4F820022B463246694661
:10394000384601F0EDF92046FFF7B0FE10B96D1CC6
:10395000642DF2D3642D0CD004280BD19DF80B00FC
:10396000F872C4F820629DF80B0080070FD5002084
:1039700004E0072004B0BDE8F09F401C36F81010AA
:103980000029FAD10D211930B0FBF1F600E0012633
:103990000021204600F0A4F8A0B90027D4F81012A6
:1039A000D4F8000201F032FB60B9D4F814020078B8
:1039B000E5280AD048B1002701212046FFF718FF6B
:1039C0000028EBD0042812D012E07F1C3046B7420A
:1039D000F2D1461E5FEA060A5FD0B4F8061220460E
:1039E000A1EB0A0100F07CF8050003D074E0072089
:1039F000054671E0D4F8180201F0EEFBCDF80C009A
:103A0000D4F81012D4F8000201F000FB050063D1D5
:103A1000D4F81412D4F82092039848730F20C87277
:103A20000020087388760AF0FF0BC876ABF101001E
:103A300000EB800202EBC00500234FF6FF7E274E0D
:103A40004A1C01E0604503D039F81500F4466D1CAE
:103A5000F75CC85516F80380070A08F8027000B929
:103A600060465B1C0D2BEDD3704502D039F8150074
:103A700008B94BF0400B81F800B0D4F800120120D7
:103A800081F8040200212046FFF7B2FE050023D191
:103A9000AAF101005FEA000AB2D1D4F81012D4F8FA
:103AA000000201F0B3FA050016D1D4F81402202266
:103AB000002104F5007401F0A2FAD4E905010B22FB
:103AC00001F094FAA0696169C07A00F018000873E7
:103AD0002168012081F8040228464BE7F0530008D2
:103AE00070B5A0F80612D0F808320D460446012B36
:103AF00040D0D4F80002D0F8141299423AD933B920
:103B000090F80012032906D1D0F824321BB190F8A6
:103B10000202060114E0B0F80812A9422AD9D0F82E
:103B2000240214E001F03CF90346401C20D0022B93
:103B300020D3D4F80002D0F8140298421AD9AD1B51
:103B4000D4F80002B5421946ECD2FFF728FCC4F8BD
:103B50000C3278B100EB1510C4F81002D4F8000252
:103B600005F00F0100EB4110C4F81402002070BDF5
:103B7000012070BD022070BD084910B50B5C002209
:103B800053B901220A540A1801EB8000127A4068E6
:103B90000168104688470246104610BD48060020BE
:103BA00030B4054C231804EB80001B7A406804698C
:103BB0001846A44630BC60474806002030B4054D86
:103BC0002C1805EB8000247A406885682046AC46B6
:103BD00030BC604748060020044A111802EB800000
:103BE000097A4068426808461047000048060020ED
:103BF00030B4054D2C1805EB8000247A4068C56868
:103C00002046AC4630BC60474806002010B504464C
:103C100000F062FD00280DD1204601F075FB002860
:103C200008D1D4F82802FFF723FD002802D1002193
:103C3000C4F8001210BD2DE9F74F14468A46002241
:103C40006946204600F0BEFE24685FEA000859D1AC
:103C5000D4E98407B91E884202D8CAF8000051E0AE
:103C600094F800920025B9F1010F02D0D4F8206237
:103C700017E002263146204601F092F8411C03D09D
:103C8000012803D028B105E0012000E00220804691
:103C90002EE06D1CD4F81402761C8642EAD327E08D
:103CA00051B93146761C204601F0B0F95FEA0008B0
:103CB0001ED120464FF40071B9F1020F0DD00278E9
:103CC000C37890F801C042EA036283781B0443EA98
:103CD0000C231A43120106D006E0028802B96D1CBB
:103CE000801C891E02E06D1C001D091F7F1ED7D19C
:103CF000C4F8105294F8050240F0010084F805025F
:103D0000CAF800504046BDE8FE8F00002DE9FC5F78
:103D10000D46044601F0F8FA5FEA000973D194F801
:103D2000070200286FD1D4F8240201274FF0020ABD
:103D3000002869D0691C33D0D4F80C02A84200D204
:103D40000546C4F80852002D5CD02046691EFFF7D6
:103D500011FB0146C4F81402D4F80002FFF71FFB60
:103D600000287CD0D4F800126D1E91F80222521E59
:103D700002EA55221518B4F80802C005E4D0D4F8B8
:103D80001822AA42E0D094F80602400646D591F8DF
:103D9000010201232146FFF72BFF002874D137E0F1
:103DA00002C80091D4F810128346022509B30026F8
:103DB000AD1C01918846761CD4F8000200F0F0FF9B
:103DC000014601284BD9481C5ED008F10100814210
:103DD000F0D00098854206D8CBF800600BF10400C3
:103DE000019A04C08346D4F80002D0F81402884235
:103DF000DDD8D4F8240205600098854205D800215A
:103E0000CBF80010C2E09DE016E04FF01109BDE0D4
:103E100094F8060220F0400084F80602D4F800026C
:103E200001232A4690F801022146FFF7C7FE002829
:103E30002AD1C4F81852A9E0D4F80C02A84204D23E
:103E400094F80612890700D405464FF00008D4F80C
:103E50000802C4F808824DB3D4F8002200E06EE0F6
:103E600092F802124E0280B1691E401EB1FBF6F1BB
:103E7000B0FBF6F3994208D3711E8843C4F80802D8
:103E80002D1AD4F8141210E06EE0D4F8101251B9C3
:103E900000211046FFF792FA014601284FD0481C36
:103EA00062D0C4F81012C4F8141211BB31E000BF84
:103EB00094F806028007D4F8000205D5FFF77EFAD1
:103EC000010004D1354616E000F06AFF0146481CA7
:103ED0004AD0012933D9D4F80002D0F8140288421C
:103EE0002DD9C4F81412D4F80802AD1B3044C4F81C
:103EF0000802B542DCD8D4F808022844C4F8080205
:103F0000E80506D0D4F80002FFF749FAB8B100EB93
:103F10005528B4F80802C0052CD0D4F81822424520
:103F200028D094F80602400614D5D4F800020123E4
:103F3000214690F80102FFF75BFEA8B904E084F87F
:103F400007A20220BDE8FC9F94F8060220F0400082
:103F500084F80602D4F800020123424690F80102D8
:103F60002146FFF72BFE18B184F807720120E9E71C
:103F7000C4F81882D4E98201884207D9C4F80C0237
:103F800094F8060240F0200084F806024846D9E77B
:103F90002DE9F74F8EB015460F98012803D913204D
:103FA00011B0BDE8F08F0EA800F062FF002801DA22
:103FB0000B20F5E7FE4951F8204054B1002184F868
:103FC0000012C0B20390FFF7D7FDC10703D0032052
:103FD000E6E70C20E4E7400701D50A20E0E708AA5D
:103FE00001210398FFF7DCFD00287DD10899802985
:103FF0007AD30F9808B1002000E03F208046A1EB63
:104000000801681E0542089100D17DB94FF4FA609D
:10401000B1FBF0F20020E74B00E0401C33F81050F9
:104020009542FAD8E34A163232F81050B5F5007FBF
:1040300000D36D0A85B1802D00D98025B1FBF5F044
:10404000012640F6F672904200D302264FF6F67231
:10405000904203D3032620E00125EFE7032E1CD076
:10406000012E23D04000001D00F2FF10470A4FF040
:1040700001092020834608EB090A0AEB070058448F
:1040800042190090A2EB0800884247D809AA0321F0
:104090000398FFF785FDA0B90EE040F2072202EB7E
:1040A0008000470A4FF020090020E3E700EB4000C2
:1040B000401C4008C01CD7E7099810B1B0F5004F6C
:1040C00001D901200990099900980844401E491E11
:1040D00088430099401A0990032E12D0074408988B
:1040E000A0EB0901CA1B00E0DDE0A2EB0B01B1FB74
:1040F000F5F10D91022E07D0032E0AD0012E15D016
:1041000019E081448244EAE740F6F672914205D311
:1041100011E008464FF6F671884201D20E203FE7C3
:104120000C2002900F9868B1F02045E0B0F5803F78
:1041300006D20120F5E7B0F5803F01D20420F0E778
:104140000620EEE74FF400720021204600F057FFF2
:1041500004F5DF700121417081700021C170029A65
:104160000271FE224271089B08EB030243F6C16311
:10417000B2FBF3F23F2343EA920C099280F806C0A7
:10418000C271037241728172C172089901730A0A85
:1041900042730A0C8273090EC173552084F8FE0124
:1041A000AA2084F8FF010123002221460398FFF78B
:1041B0001FFD002877D1F82002904FF400720021F3
:1041C000204600F01CFF0B227BA1204600F00EFFD2
:1041D0000021E17202202073657384F80E904FEA8B
:1041E0001920E07301202074032E0BD0400260746C
:1041F000000AA0740898B0F5803F05D2E074000A68
:1042000020750CE00020F2E784F82000020A84F810
:104210002120020C84F82220000E84F8230002984A
:1042200060753F202076002060764FF0FF0984F80B
:104230001A90E07684F81C804FEA182060774FEAE5
:104240001840A0774FEA1860E07700F00FFE802159
:1042500029220990032E27D084F82700030A84F826
:104260002830030C84F82930000E84F82A00A77542
:10427000380AE07584F8241084F82620132251A10E
:1042800004F12B0000F0B2FE552084F8FE01AA20B4
:1042900084F8FF010123424621460398FFF7A8FC5A
:1042A000002800D133E0BDE084F84300030A84F81D
:1042B0004430030C84F84530000E84F8460084F83E
:1042C0002470380A84F82500380C84F82600380E4B
:1042D00084F82700022084F82C00002084F82D00A8
:1042E00084F82E0084F82F00012384F8303084F8FD
:1042F0003100062384F8323084F8330084F840100B
:1043000084F84220132234A104F14700BAE7032EB7
:1043100006D1012308F1060221460398FFF768FC45
:104320004FF400720021204600F069FE02990991C5
:10433000032E12D0012E0ED06FF0FF00084309901B
:1043400020700998000A60700998000CA070099804
:10435000000EE0701EE02548F0E761F0FF000990D4
:1043600020700998000A60700998000CA0700998E4
:10437000000EE07084F8049084F8059084F80690AC
:1043800084F8079084F8089084F8099084F80A90DB
:104390000F20E07252460AF10109012321460398D9
:1043A000FFF726FCF0BB4FF40072002120461FE00F
:1043B00054000020FE530008EBFE904D53444F5331
:1043C000352E30004E4F204E414D452020202046B6
:1043D00041542020202020004E4F204E414D4520AA
:1043E00020202046415433322020200000FFFF00CF
:1043F00000F005FE01200AE04A4609F10109012307
:1044000021460398FFF7F4FB60B90998401C099016
:10441000B842F1D3032E00D05D464A4609F10109A6
:10442000012300E042E021460398FFF7E1FBE8BBEF
:104430006D1EF2D1032E3CD152202070607061209D
:10444000A0704121E170722284F8E42184F8E52112
:1044500084F8E61184F8E7010D980123401E84F8E2
:10446000E801010A84F8E911010C84F8EA11000E50
:1044700084F8EB01022084F8EC01002084F8ED01BF
:1044800084F8EE0184F8EF01552084F8FE01AA209B
:1044900084F8FF0108F1010221460398FFF7A8FB09
:1044A000012308F107022146039800E009E0FFF725
:1044B0009FFB002211460398FFF772FB00283FF490
:1044C00078AD01206CE500002DE9F74181B0904600
:1044D00002980090684600F0CBFC040003D50B2046
:1044E00004B0BDE8F0810E4E002756F8245025B1E7
:1044F0002846FEF72DFF85F800720198002801D0AC
:1045000080F8007246F8240002D0B8F1010F01D003
:104510000020E5E7002202A901A800F053FADFE736
:10452000540000202DE9F747ADF2344D06000FD0BE
:104530004FF0000802F01F0727F001020DF5876118
:1045400080A8C6F8008200F03DFA040005D0BDE066
:1045500009200DF5886DBDE8F0870DF58560869022
:104560008AA888906846DDF8381400F093FB859D92
:1045700004000BD11DB1780803D0012102E006240C
:1045800004E000216846FEF7ADFE044617F01C0F5C
:104590005FD04FF0010AD4B1042C13D100204D4953
:1045A00002E0401C022805D200EB400251F8222014
:1045B000002AF6D1022804D06846FFF7A9F904467C
:1045C00000E01224859D47F0080754B17EE0E87AA8
:1045D00010F0110F01D0072478E0780701D50824E6
:1045E00074E0380743D500F041FCA873010AE97371
:1045F000010C2974000E687485F80B8085F81C8006
:1046000085F81D8085F81E8085F81F8029468098D2
:1046100000F09CFC81460021284600F0D5FD8099E1
:10462000B9F1000F81F804A21FD080984946D0F854
:104630002CA200F081FD040048D18099A9F101006D
:10464000C1F80C025146809800F0E0FC04000AD04A
:104650003CE0DCBBE87AC10601D5042436E0B907AA
:1046600001D5C007B7D1380701D547F0200780989A
:10467000D0F82C02C6E98705780801D0012100E0B6
:104680000021684600F012FCC6F8280200B386F844
:10469000067286F807824746294606F50076809816
:1046A00000F054FC3061287FE97F6A7F40EA0160B6
:1046B000A97F090441EA02210843C6E90270B761F3
:1046C000776280983060B0F80602B080204640E7FC
:1046D0000224FBE73006002070B5044600F014FE0B
:1046E000002811D194F806128A060DD5480612D575
:1046F000D4F800020123214690F80102D4F81822D0
:10470000FFF776FA08B1012070BD94F8060220F098
:10471000400084F80602D4F81C12D4F8000200F01D
:1047200075FC0028F0D1D4F82052E87A40F020003F
:10473000E87294F80C022877B4F80C02000A687743
:10474000D4F80C02000CA877D4F80C02000EE8771D
:10475000D4F81012284604F5007400F035FD00F07E
:1047600085FBA875010AE975010C2976000E6876AB
:104770000020A874E874A07920F02000A0712168BE
:10478000012081F804022068BDE8704000F031BDCE
:104790002DE9F84F884600219946154604461960D0
:1047A00000F0B2FD002808D194F80702002804D1D7
:1047B00094F80602800702D40720BDE8F88FD4F8E9
:1047C0000802012741194FF0020A81427BD3B9E068
:1047D000D4F80812C80577D1D4F8002292F8020262
:1047E000401E00EA512010F0FF061ED131B1D4F86E
:1047F000240240B12046FEF7BDFD09E0D4F81002C6
:1048000040B9002101E0D4F814121046FEF7D6FD9D
:10481000002858D001283DD0411C6CD0C4F81402A7
:10482000D4F8101209B9C4F8100294F80602400630
:1048300010D5D4F800020123214690F80102D4F8E3
:104840001822FFF7D5F9E8BB94F8060220F04000E3
:1048500084F80602D4F81412D4F80002FEF79FFD83
:10486000C0B130440090680A5FEA000B30D0D4F841
:10487000000206EB0B0290F802128A4201D9A1EB6A
:10488000060B90F801025B464146009AFFF7B0F92B
:10489000C0B903E084F807A202208EE7D4F818120A
:1048A0000098081A58450CD208EB40214FF40072CA
:1048B000204600F09BFB94F8060220F0400084F8AC
:1048C000060202E017E040E01CE04FEA4B262DE034
:1048D000D4F818120098814211D0D4E9820188429C
:1048E0000DD2D4F800020123214690F80102009A6B
:1048F000FFF764F918B184F8077201205DE70098AA
:10490000C4F81802B4F80802C0F30800C0F5007635
:10491000AE4200D92E4620443246414600F066FBA6
:1049200094F8060240F0400084F80602D4F8080229
:10493000B0443044C4F80802D9F800008119AD1B16
:10494000C9F80010002D7FF443AFD4E982018842FA
:1049500001D9C4F80C0294F8060240F0200084F853
:104960000602002029E70000802804D30B4A51B139
:10497000FF2801D90020704702EB4000A0F58050CD
:10498000B0F8000F704732F81130834203D0491C51
:1049900089B28029F7D38031C8B270472A54000801
:1049A0000021064B00E0491C33F81120002A04D0F6
:1049B0008242F8D1024830F8110070472A550008A9
:1049C0000A5700082DE9FF474FF000090746C0F8D5
:1049D00000901646084600F04BFA050003D50B2060
:1049E00004B0BDE8F087A84850F82540A4B13C6069
:1049F00094F8000228B194F80102FFF7EDF8C1071E
:104A00000CD084F80092E8B284F80102FFF7B4F801
:104A1000C10708D00320E3E70C20E1E70EB140070F
:104A200004D40020DCE71EB1400701D50A20D7E7F7
:104A3000002529462046FEF711FC012827D1002138
:104A40004FEA0D0704EB011090F8C22100F5DF706A
:104A50004AB1027AC37A42EA0362837A407A1B043B
:104A600043EA0020024347F82120491C0429E9D3E6
:104A70005FF0000657F826502DB129462046FEF774
:104A8000EDFB08B909E00220761C042EF2D30328BE
:104A900001D0E8BB01E00120A2E7B4F80B00B0F5BB
:104AA000007F70D1E28A6AB994F8240094F8271044
:104AB00040EA016294F8260094F82510000440EAC8
:104AC00001200243C4F81822217C84F80312012932
:104AD00001D0022957D1607B514384F80202B8B15A
:104AE000431E18424FD1B4F81130A4F808321E0703
:104AF00049D1B4F813607EB994F8206094F823701B
:104B000094F821C046EA076694F822703F0400E05A
:104B100039E047EA0C273E43B4F80EC0BCF1000F61
:104B200031D00CEB010707EB1317BE422BD3F61B5A
:104B3000B6FBF0F038B3012640F6F678404500D3D6
:104B400002264FF6F678404500D30326801C2F44FA
:104B5000C4F82872AC44C4F81402C4E9875C032E7C
:104B600013D083B16144C4F82412022E21D000F086
:104B7000010100EB400001EB500000BF00F2FF100C
:104B8000B2EB502F17D20D202AE7002BFBD194F85F
:104B90002C1094F82F3094F82D7041EA036194F8AA
:104BA0002E301B0443EA072319438000C4F8241263
:104BB000E4E74000E2E74FF0FF30C4F81002C4F829
:104BC0000C02802084F80502032E4FD1208E01288C
:104BD0004CD12046691C00F019FAE0BB84F805921C
:104BE000B4F8FE01A0F52A4155393FD12078E1788B
:104BF000627840EA0160A178090441EA0221084391
:104C00002249884232D194F8E40194F8E71194F8EB
:104C1000E52140EA016094F8E611090441EA022125
:104C200008431B49884221D194F8E80194F8EB111C
:104C300094F8E92140EA016094F8EA11090441EA94
:104C400002210843C4F8100294F8EC0194F8EF1123
:104C500040EA016000E009E094F8EE1194F8ED21DB
:104C6000090441EA02210843C4F80C02064984F809
:104C70000062091F0888401C0880A4F8060220462C
:104C8000FEF766FBCDE60000540000205252614161
:104C90007272416173B50446019801782F2901D0E1
:104CA0005C2901D1401C01900025C4F808520198EC
:104CB0000078202806D200212046FEF711FFC4F814
:104CC00014527CBD01A92046FEF7D0FB0028F8D184
:104CD0002046FEF7EBFCD4F81812C97A28B1042854
:104CE000EFD14907EDD405207CBD4907FCD4D4F8A9
:104CF0001412C87AC006F6D5D4F8000200F026F9DE
:104D0000C4F80802DEE7000013B54FF6FF73012276
:104D100069460248FDF71CF900981CBD10030020ED
:104D20007CB516461C4605460B2200F05FF9052CA3
:104D300011D91A4A0CE00021B61C2346044663F33D
:104D40005F044008E30300D55440491C1029F4D304
:104D500030880028EFD107214FEA0D0204F00F0040
:104D60003030392800D9C01D5054491E2409F5D1CE
:104D70007E205054002000E0401C884202D22B5C70
:104D8000202BF9D1082902D2535C491C00E02023D2
:104D90002B54401C0828F5D37CBD000021100100D5
:104DA0002DE9F0410D46044602290DD3D4F8140232
:104DB000A84209D994F800024FF0FF36012807D025
:104DC00002282AD0032836D001263046BDE8F081DB
:104DD000D4F8200205EB550700EB5721204600F0E0
:104DE00015F90028F1D1C7F308007F1C14F80080E2
:104DF000D4F8200200EB5721204600F007F90028E4
:104E0000E3D1C7F30800215C48EA0120E90701D09B
:104E10000609DAE7C0F30B06D7E7D4F8200200EB67
:104E20001521204600F0F2F80028CED1E8B204EBBC
:104E300040000688C9E7D4F8200200EBD5112046CF
:104E400000F0E4F80028C0D140F2FF1000EA85002D
:104E500020440178C27841EA0261827840781204E5
:104E600042EA0020014321F07046AEE7002070477F
:104E700010B504464FF0FF302268002A13D01146C7
:104E800000E0491C0B78202B0ED33A2BF9D112F8F5
:104E9000013B303B0A2B06D28A4204D1002B02D1BF
:104EA000491C1846216010BD002010BDF0B5034616
:104EB000254AD3F80042002000EB400552F8256057
:104EC000A6420BD102EB8505D3F808626F68B742A2
:104ED00004D12D89B3F80662B54202D0401C0228E5
:104EE000EAD302281AD1002002E0401C022805D291
:104EF00000EB400552F82550002DF6D1022815D0C0
:104F000000EB400542F8254002EB8504D3F8086227
:104F10006660B3F80632238100236381002900EB29
:104F2000400102EB8101498902D019B10020F0BD96
:104F3000491C01E04FF4807100EB400302EB830257
:104F4000401C5181F0BD0000300600200246488B15
:104F500092F80022032A02D1898A40EA0140704770
:104F6000FBF77EFEFDF7F7FDFDF7D6F8FDF788F8B5
:104F7000FDF7BCF9FDF7DEF9FDF7FEF9FDF71EFAC6
:104F8000FDF738FAFDF736F8FDF764F9FDF75AF842
:104F9000FDF7B4F8FBF798F90E4D4FF4FA7420467C
:104FA000FBF72EFD0B4917220B31A1F10A00FDF78B
:104FB00051FF2046FBF724FD2878401C287005E0AF
:104FC00005A0FEF771F82046FBF71AFD28780528A2
:104FD000E5D9F5E700000020207768696C65202E90
:104FE0002E2E2E2E2E200D0A0000000004E000BF01
:104FF00011F8013B00F8013B521EF9D27047C9B2CB
:1050000001E000F8011B521EFBD2704770B5054647
:10501000D0F82C020C460026A04210D0284600F002
:1050200043F906000BD195F80102012322462946D7
:10503000FEF7C4FD08B1741E0126C5F82C423046A7
:1050400070BD2DE9F04717460D460446022903D3EB
:10505000D4F81402A84202D80220BDE8F08794F8E0
:10506000001207F0FF084FF0010901291FD00229A3
:105070004FD00329F0D1D4F8200200EBD5112046FF
:10508000FFF7C4FF0028E8D140F2FF1101EA8501D3
:105090000A194FF07043D17803EA01613943117066
:1050A0000B0A53700B0C9370090ED17041E0D4F8C9
:1050B000200205EB550600EB56212046FFF7A6FF20
:1050C0000028CAD1C6F30800761C2044E90703D0A3
:1050D000017868F31F1100E03946017084F80492EA
:1050E000D4F8200200EB56212046FFF78FFF00285E
:1050F000B3D1C6F308012144EA0702D0C7F307126F
:1051000005E00A78C7F3032302F0F0021A430A709D
:105110000FE0D4F8200200EB15212046FFF776FFC0
:1051200000289AD1E9B204EB41013A0A81F80080E3
:105130004A7084F8049290E72DE9F0410F46064644
:10514000022917D3D6F81402B84213D9002523E058
:1051500039463046FFF724FE040021D0012C09D047
:10516000601C09D0002239463046FFF76AFF05006F
:1051700016D103E0022513E0012511E0D6F8100254
:10518000411C08D0401CC6F8100296F8050240F0F9
:10519000010086F805022746D6F81402B842D7D88F
:1051A0002846BDE8F081000001B582B0642000907F
:1051B000012301AA02A90348FCF754FD9DF804004D
:1051C0000EBD0000B400002081760A0AC2760A0CE7
:1051D0000275090E41757047014600200B224308F5
:1051E00003EBC01011F8013B521E1844C0B2F6D1B7
:1051F000704770B5044600F057F8050052D194F896
:105200000002032846D194F80502012842D1420247
:1052100000212046FFF7F3FE552084F8FE01AA2066
:1052200084F8FF015220207060706120A07041213D
:10523000E170722284F8E42184F8E52184F8E61113
:1052400084F8E701D4F8100284F8E801010A84F830
:10525000E911010C84F8EA11000E84F8EB01D4F88E
:105260000C0284F8EC01010A84F8ED11010C84F8B9
:10527000EE11000E84F8EF01D4F81C220123521C19
:10528000C4F82C2294F801022146FEF7B1FC00205C
:1052900084F80502002294F801021146FEF780FC12
:1052A00000B10125284670BD2DE9F041044690F873
:1052B0000402002728B3D4F82C5294F801020123E9
:1052C0002A462146FEF794FC08B1012719E0002088
:1052D00084F80402D4F82002D4F81812281A88425C
:1052E0000FD294F803620AE0D4F8180201230544AF
:1052F00094F801022A462146FEF77AFC761E022E19
:10530000F2D23846BDE8F08110B588B1D0F800126D
:1053100071B191F800225AB1B1F80622B0F8040236
:10532000824205D191F80102FEF756FCC00700D079
:10533000092010BD010202030405060708090A0B33
:105340000C0D0E0F101001020203040506070809D8
:105350000A0B0C0D0E0F10100000000000000000E2
:10536000010203040607080900000000010203040B
:10537000809A90418E418F804545454949498E8F9D
:105380009092924F994F555559999A9B9C9D9E9FEB
:1053900041494F55A5A5A6A7A8A9AAABAC21AEAF78
:1053A000B0B1B2B3B4B5B6B7B8B9BABBBCBDBEBF85
:1053B000C0C1C2C3C4C5C6C7C8C9CACBCCCDCECF75
:1053C000D0D1D2D3D4D5D6D7D8D9DADBDCDDDEDF65
:1053D000E0E1E2E3E4E5E6E7E8E9EAEBECEDEEEF55
:1053E000F0F1F2F3F4F5F6F7F8F9FAFBFCFDFEFF45
:1053F00001030507090E10121416181C1E000004E4
:10540000000200018000400020001000080004009D
:105410000200000000800040002000100008004052
:1054200000200010000800040002C700FC00E90092
:10543000E200E400E000E500E700EA00EB00E8003D
:10544000EF00EE00EC00C400C500C900E600C60095
:10545000F400F600F200FB00F900FF00D600DC00CB
:10546000A200A300A500A7209201E100ED00F30037
:10547000FA00F100D100AA00BA00BF001023AC006E
:10548000BD00BC00A100AB00BB0091259225932577
:10549000022524256125622556255525632551259C
:1054A00057255D255C255B251025142534252C25E5
:1054B0001C2500253C255E255F255A255425692598
:1054C0006625602550256C2567256825642565259A
:1054D00059255825522553256B256A2518250C2555
:1054E000882584258C2590258025B103DF00930332
:1054F000C003A303C303B500C403A6039803A90311
:10550000B4031E22C603B50329226122B10065221D
:10551000642220232123F7004822B0001922B7007B
:105520001A227F20B200A025A00061006200630063
:105530006400650066006700680069006A006B002F
:105540006C006D006E006F007000710072007300DF
:105550007400750076007700780079007A00A10069
:10556000A200A300A500AC00AF00E000E100E20053
:10557000E300E400E500E600E700E800E900EA00F7
:10558000EB00EC00ED00EE00EF00F000F100F200A7
:10559000F300F400F500F600F800F900FA00FB0053
:1055A000FC00FD00FE00FF000101030105010701F1
:1055B00009010B010D010F01110113011501170163
:1055C00019011B011D011F012101230125012701D3
:1055D00029012B012D012F01310133013501370143
:1055E0003A013C013E0140014201440146014801AB
:1055F0004B014D014F015101530155015701590113
:105600005B015D015F016101630165016701690182
:105610006B016D016F0171017301750177017A01F1
:105620007C017E019201B103B203B303B403B5035D
:10563000B603B703B803B903BA03BB03BC03BD0386
:10564000BE03BF03C003C103C303C403C503C60332
:10565000C703C803C903CA03300431043204330446
:105660003404350436043704380439043A043B045E
:105670003C043D043E043F0440044104420443040E
:105680004404450446044704480449044A044B04BE
:105690004C044D044E044F0451045204530454046A
:1056A000550456045704580459045A045B045C0416
:1056B0005E045F04702171217221732174217521B0
:1056C00076217721782179217A217B217C217D2106
:1056D0007E217F2141FF42FF43FF44FF45FF46FFFC
:1056E00047FF48FF49FF4AFF4BFF4CFF4DFF4EFF6E
:1056F0004FFF50FF51FF52FF53FF54FF55FF56FF1E
:1057000057FF58FF59FF5AFF000041004200430075
:105710004400450046004700480049004A004B004D
:105720004C004D004E004F005000510052005300FD
:105730005400550056005700580059005A002100E7
:10574000E0FFE1FFE5FFE2FFE3FFC000C100C200B0
:10575000C300C400C500C600C700C800C900CA0015
:10576000CB00CC00CD00CE00CF00D000D100D200C5
:10577000D300D400D500D600D800D900DA00DB0071
:10578000DC00DD00DE0078010001020104010601F9
:1057900008010A010C010E01100112011401160189
:1057A00018011A011C011E012001220124012601F9
:1057B00028012A012C012E01300132013401360169
:1057C00039013B013D013F014101430145014701D1
:1057D0004A014C014E015001520154015601580139
:1057E0005A015C015E0160016201640166016801A9
:1057F0006A016C016E017001720174017601790118
:105800007B017D019101910392039303940395031E
:1058100096039703980399039A039B039C039D03A4
:105820009E039F03A003A103A303A403A503A60350
:10583000A703A803A903AA03100411041204130464
:105840001404150416041704180419041A041B047C
:105850001C041D041E041F0420042104220423042C
:105860002404250426042704280429042A042B04DC
:105870002C042D042E042F04010402040304040448
:10588000050406040704080409040A040B040C04B4
:105890000E040F04602161216221632164216521CE
:1058A00066216721682169216A216B216C216D21A4
:1058B0006E216F2121FF22FF23FF24FF25FF26FFFA
:1058C00027FF28FF29FF2AFF2BFF2CFF2DFF2EFF8C
:1058D0002FFF30FF31FF32FF33FF34FF35FF36FF3C
:1058E00037FF38FF39FF3AFF000000000C5900086D
:1058F000000000205C000000E83000086859000843
:105900005C000020FC250000F83000080068656C91
:105910006C6F2E7478740030312077726974652052
:105920006275666620746F207364200D0A00FF00A4
:10593000872D00081B2E0008F72D00082F2E0008C9
:10594000A92D000800000000000000000100000078
:10595000100000000000000000127A0000000000AB
:0859600000000000000000003F
:0400000508000131BD
:00000001FF
